{
  "_format": "hh-sol-artifact-1",
  "contractName": "AuctionManager",
  "sourceName": "contracts/AuctionManager.sol",
  "abi": [
    {
      "inputs": [],
      "stateMutability": "nonpayable",
      "type": "constructor"
    },
    {
      "inputs": [
        {
          "internalType": "address",
          "name": "owner",
          "type": "address"
        }
      ],
      "name": "OwnableInvalidOwner",
      "type": "error"
    },
    {
      "inputs": [
        {
          "internalType": "address",
          "name": "account",
          "type": "address"
        }
      ],
      "name": "OwnableUnauthorizedAccount",
      "type": "error"
    },
    {
      "inputs": [],
      "name": "ReentrancyGuardReentrantCall",
      "type": "error"
    },
    {
      "anonymous": false,
      "inputs": [
        {
          "indexed": true,
          "internalType": "uint256",
          "name": "auctionId",
          "type": "uint256"
        },
        {
          "indexed": true,
          "internalType": "address",
          "name": "owner",
          "type": "address"
        },
        {
          "indexed": false,
          "internalType": "uint256",
          "name": "startingBid",
          "type": "uint256"
        },
        {
          "indexed": false,
          "internalType": "uint256",
          "name": "minBidIncrement",
          "type": "uint256"
        },
        {
          "indexed": false,
          "internalType": "uint256",
          "name": "endTime",
          "type": "uint256"
        }
      ],
      "name": "AuctionCreated",
      "type": "event"
    },
    {
      "anonymous": false,
      "inputs": [
        {
          "indexed": true,
          "internalType": "uint256",
          "name": "auctionId",
          "type": "uint256"
        },
        {
          "indexed": true,
          "internalType": "address",
          "name": "winner",
          "type": "address"
        },
        {
          "indexed": false,
          "internalType": "uint256",
          "name": "amount",
          "type": "uint256"
        }
      ],
      "name": "AuctionFinalized",
      "type": "event"
    },
    {
      "anonymous": false,
      "inputs": [
        {
          "indexed": true,
          "internalType": "uint256",
          "name": "auctionId",
          "type": "uint256"
        },
        {
          "indexed": true,
          "internalType": "address",
          "name": "stoppedBy",
          "type": "address"
        }
      ],
      "name": "AuctionStopped",
      "type": "event"
    },
    {
      "anonymous": false,
      "inputs": [
        {
          "indexed": true,
          "internalType": "uint256",
          "name": "auctionId",
          "type": "uint256"
        },
        {
          "indexed": true,
          "internalType": "address",
          "name": "bidder",
          "type": "address"
        },
        {
          "indexed": false,
          "internalType": "uint256",
          "name": "amount",
          "type": "uint256"
        }
      ],
      "name": "BidPlaced",
      "type": "event"
    },
    {
      "anonymous": false,
      "inputs": [
        {
          "indexed": true,
          "internalType": "address",
          "name": "previousOwner",
          "type": "address"
        },
        {
          "indexed": true,
          "internalType": "address",
          "name": "newOwner",
          "type": "address"
        }
      ],
      "name": "OwnershipTransferred",
      "type": "event"
    },
    {
      "anonymous": false,
      "inputs": [
        {
          "indexed": true,
          "internalType": "uint256",
          "name": "auctionId",
          "type": "uint256"
        },
        {
          "indexed": true,
          "internalType": "address",
          "name": "bidder",
          "type": "address"
        },
        {
          "indexed": false,
          "internalType": "uint256",
          "name": "amount",
          "type": "uint256"
        }
      ],
      "name": "RefundIssued",
      "type": "event"
    },
    {
      "inputs": [
        {
          "internalType": "address",
          "name": "_admin",
          "type": "address"
        }
      ],
      "name": "addAdmin",
      "outputs": [],
      "stateMutability": "nonpayable",
      "type": "function"
    },
    {
      "inputs": [
        {
          "internalType": "uint256",
          "name": "auctionId",
          "type": "uint256"
        }
      ],
      "name": "adminStopAuction",
      "outputs": [],
      "stateMutability": "nonpayable",
      "type": "function"
    },
    {
      "inputs": [
        {
          "internalType": "address",
          "name": "",
          "type": "address"
        }
      ],
      "name": "admins",
      "outputs": [
        {
          "internalType": "bool",
          "name": "",
          "type": "bool"
        }
      ],
      "stateMutability": "view",
      "type": "function"
    },
    {
      "inputs": [
        {
          "internalType": "uint256",
          "name": "",
          "type": "uint256"
        },
        {
          "internalType": "uint256",
          "name": "",
          "type": "uint256"
        }
      ],
      "name": "auctionBidders",
      "outputs": [
        {
          "internalType": "address",
          "name": "",
          "type": "address"
        }
      ],
      "stateMutability": "view",
      "type": "function"
    },
    {
      "inputs": [
        {
          "internalType": "uint256",
          "name": "",
          "type": "uint256"
        },
        {
          "internalType": "uint256",
          "name": "",
          "type": "uint256"
        }
      ],
      "name": "auctionBids",
      "outputs": [
        {
          "internalType": "address",
          "name": "bidder",
          "type": "address"
        },
        {
          "internalType": "uint256",
          "name": "amount",
          "type": "uint256"
        },
        {
          "internalType": "uint256",
          "name": "timestamp",
          "type": "uint256"
        }
      ],
      "stateMutability": "view",
      "type": "function"
    },
    {
      "inputs": [
        {
          "internalType": "uint256",
          "name": "",
          "type": "uint256"
        }
      ],
      "name": "auctions",
      "outputs": [
        {
          "internalType": "uint256",
          "name": "id",
          "type": "uint256"
        },
        {
          "internalType": "address payable",
          "name": "owner",
          "type": "address"
        },
        {
          "internalType": "uint256",
          "name": "startingBid",
          "type": "uint256"
        },
        {
          "internalType": "uint256",
          "name": "minBidIncrement",
          "type": "uint256"
        },
        {
          "internalType": "uint256",
          "name": "endTime",
          "type": "uint256"
        },
        {
          "internalType": "address",
          "name": "highestBidder",
          "type": "address"
        },
        {
          "internalType": "uint256",
          "name": "highestBid",
          "type": "uint256"
        },
        {
          "internalType": "bool",
          "name": "isActive",
          "type": "bool"
        },
        {
          "internalType": "bool",
          "name": "isFinalized",
          "type": "bool"
        }
      ],
      "stateMutability": "view",
      "type": "function"
    },
    {
      "inputs": [
        {
          "internalType": "uint256",
          "name": "",
          "type": "uint256"
        },
        {
          "internalType": "address",
          "name": "",
          "type": "address"
        }
      ],
      "name": "bidderDeposits",
      "outputs": [
        {
          "internalType": "uint256",
          "name": "",
          "type": "uint256"
        }
      ],
      "stateMutability": "view",
      "type": "function"
    },
    {
      "inputs": [
        {
          "internalType": "uint256",
          "name": "_startingBid",
          "type": "uint256"
        },
        {
          "internalType": "uint256",
          "name": "_minBidIncrement",
          "type": "uint256"
        },
        {
          "internalType": "uint256",
          "name": "_durationMinutes",
          "type": "uint256"
        }
      ],
      "name": "createAuction",
      "outputs": [
        {
          "internalType": "uint256",
          "name": "",
          "type": "uint256"
        }
      ],
      "stateMutability": "nonpayable",
      "type": "function"
    },
    {
      "inputs": [
        {
          "internalType": "uint256",
          "name": "auctionId",
          "type": "uint256"
        }
      ],
      "name": "finalizeAuction",
      "outputs": [],
      "stateMutability": "nonpayable",
      "type": "function"
    },
    {
      "inputs": [
        {
          "internalType": "uint256",
          "name": "auctionId",
          "type": "uint256"
        }
      ],
      "name": "getAuction",
      "outputs": [
        {
          "internalType": "uint256",
          "name": "id",
          "type": "uint256"
        },
        {
          "internalType": "address",
          "name": "owner",
          "type": "address"
        },
        {
          "internalType": "uint256",
          "name": "startingBid",
          "type": "uint256"
        },
        {
          "internalType": "uint256",
          "name": "minBidIncrement",
          "type": "uint256"
        },
        {
          "internalType": "uint256",
          "name": "endTime",
          "type": "uint256"
        },
        {
          "internalType": "address",
          "name": "highestBidder",
          "type": "address"
        },
        {
          "internalType": "uint256",
          "name": "highestBid",
          "type": "uint256"
        },
        {
          "internalType": "bool",
          "name": "isActive",
          "type": "bool"
        },
        {
          "internalType": "bool",
          "name": "isFinalized",
          "type": "bool"
        }
      ],
      "stateMutability": "view",
      "type": "function"
    },
    {
      "inputs": [
        {
          "internalType": "uint256",
          "name": "auctionId",
          "type": "uint256"
        }
      ],
      "name": "getAuctionBids",
      "outputs": [
        {
          "components": [
            {
              "internalType": "address",
              "name": "bidder",
              "type": "address"
            },
            {
              "internalType": "uint256",
              "name": "amount",
              "type": "uint256"
            },
            {
              "internalType": "uint256",
              "name": "timestamp",
              "type": "uint256"
            }
          ],
          "internalType": "struct AuctionManager.Bid[]",
          "name": "",
          "type": "tuple[]"
        }
      ],
      "stateMutability": "view",
      "type": "function"
    },
    {
      "inputs": [],
      "name": "getAuctionCount",
      "outputs": [
        {
          "internalType": "uint256",
          "name": "",
          "type": "uint256"
        }
      ],
      "stateMutability": "view",
      "type": "function"
    },
    {
      "inputs": [
        {
          "internalType": "uint256",
          "name": "auctionId",
          "type": "uint256"
        },
        {
          "internalType": "address",
          "name": "bidder",
          "type": "address"
        }
      ],
      "name": "getBidderDeposit",
      "outputs": [
        {
          "internalType": "uint256",
          "name": "",
          "type": "uint256"
        }
      ],
      "stateMutability": "view",
      "type": "function"
    },
    {
      "inputs": [
        {
          "internalType": "uint256",
          "name": "auctionId",
          "type": "uint256"
        }
      ],
      "name": "getLeaderboard",
      "outputs": [
        {
          "internalType": "address",
          "name": "highestBidder",
          "type": "address"
        },
        {
          "internalType": "uint256",
          "name": "highestBid",
          "type": "uint256"
        },
        {
          "internalType": "address",
          "name": "lowestBidder",
          "type": "address"
        },
        {
          "internalType": "uint256",
          "name": "lowestBid",
          "type": "uint256"
        },
        {
          "internalType": "uint256",
          "name": "totalBidders",
          "type": "uint256"
        }
      ],
      "stateMutability": "view",
      "type": "function"
    },
    {
      "inputs": [
        {
          "internalType": "uint256",
          "name": "auctionId",
          "type": "uint256"
        }
      ],
      "name": "getRemainingTime",
      "outputs": [
        {
          "internalType": "uint256",
          "name": "",
          "type": "uint256"
        }
      ],
      "stateMutability": "view",
      "type": "function"
    },
    {
      "inputs": [
        {
          "internalType": "uint256",
          "name": "auctionId",
          "type": "uint256"
        }
      ],
      "name": "isAuctionEnded",
      "outputs": [
        {
          "internalType": "bool",
          "name": "",
          "type": "bool"
        }
      ],
      "stateMutability": "view",
      "type": "function"
    },
    {
      "inputs": [],
      "name": "owner",
      "outputs": [
        {
          "internalType": "address",
          "name": "",
          "type": "address"
        }
      ],
      "stateMutability": "view",
      "type": "function"
    },
    {
      "inputs": [
        {
          "internalType": "uint256",
          "name": "auctionId",
          "type": "uint256"
        }
      ],
      "name": "placeBid",
      "outputs": [],
      "stateMutability": "payable",
      "type": "function"
    },
    {
      "inputs": [
        {
          "internalType": "address",
          "name": "_admin",
          "type": "address"
        }
      ],
      "name": "removeAdmin",
      "outputs": [],
      "stateMutability": "nonpayable",
      "type": "function"
    },
    {
      "inputs": [],
      "name": "renounceOwnership",
      "outputs": [],
      "stateMutability": "nonpayable",
      "type": "function"
    },
    {
      "inputs": [
        {
          "internalType": "address",
          "name": "newOwner",
          "type": "address"
        }
      ],
      "name": "transferOwnership",
      "outputs": [],
      "stateMutability": "nonpayable",
      "type": "function"
    }
  ],
  "bytecode": "0x608060405234801561001057600080fd5b506001600055338061003c57604051631e4fbdf760e01b81526000600482015260240160405180910390fd5b61004581610065565b50336000908152600760205260409020805460ff191660011790556100b7565b600180546001600160a01b038381166001600160a01b0319831681179093556040519116919082907f8be0079c531659141344cd1fd0a4f28419497f9722a3daafe3b4186f6b6457e090600090a35050565b611b0e806100c66000396000f3fe60806040526004361061012a5760003560e01c80637614e9ab116100ab578063a34b46fe1161006f578063a34b46fe1461043b578063c44e664014610494578063cda4beef146104a9578063e8083863146104c9578063f2fde38b146104e9578063fc2960171461050957600080fd5b80637614e9ab146103aa57806378bd7935146103ca5780638da5cb5b146103ea5780639979ef4514610408578063998f1b871461041b57600080fd5b8063571a26a0116100f2578063571a26a0146102345780635f93de4914610303578063704802751461034857806370b4768e14610368578063715018a61461039557600080fd5b80630f715f1d1461012f5780631785f53c1461016c578063181e01241461018e578063277206be146101bc578063429b62e5146101f4575b600080fd5b34801561013b57600080fd5b5061014f61014a3660046118f3565b610529565b6040516001600160a01b0390911681526020015b60405180910390f35b34801561017857600080fd5b5061018c610187366004611931565b610561565b005b34801561019a57600080fd5b506101ae6101a9366004611953565b61058a565b604051908152602001610163565b3480156101c857600080fd5b506101ae6101d736600461196c565b600560209081526000928352604080842090915290825290205481565b34801561020057600080fd5b5061022461020f366004611931565b60076020526000908152604090205460ff1681565b6040519015158152602001610163565b34801561024057600080fd5b506102ad61024f366004611953565b60036020819052600091825260409091208054600182015460028301549383015460048401546005850154600686015460079096015494966001600160a01b0394851696909593949293929091169160ff8082169161010090041689565b60408051998a526001600160a01b0398891660208b01528901969096526060880194909452608087019290925290931660a085015260c084019290925290151560e0830152151561010082015261012001610163565b34801561030f57600080fd5b5061032361031e3660046118f3565b6105fe565b604080516001600160a01b039094168452602084019290925290820152606001610163565b34801561035457600080fd5b5061018c610363366004611931565b61064a565b34801561037457600080fd5b50610388610383366004611953565b610676565b6040516101639190611998565b3480156103a157600080fd5b5061018c610724565b3480156103b657600080fd5b506101ae6103c536600461196c565b610738565b3480156103d657600080fd5b506102ad6103e5366004611953565b610762565b3480156103f657600080fd5b506001546001600160a01b031661014f565b61018c610416366004611953565b610847565b34801561042757600080fd5b50610224610436366004611953565b610c52565b34801561044757600080fd5b5061045b610456366004611953565b610c90565b604080516001600160a01b039687168152602081019590955292909416918301919091526060820152608081019190915260a001610163565b3480156104a057600080fd5b506002546101ae565b3480156104b557600080fd5b506101ae6104c43660046119fa565b610e82565b3480156104d557600080fd5b5061018c6104e4366004611953565b61114d565b3480156104f557600080fd5b5061018c610504366004611931565b611508565b34801561051557600080fd5b5061018c610524366004611953565b611543565b6006602052816000526040600020818154811061054557600080fd5b6000918252602090912001546001600160a01b03169150829050565b61056961184a565b6001600160a01b03166000908152600760205260409020805460ff19169055565b60008160025481106105b75760405162461bcd60e51b81526004016105ae90611a26565b60405180910390fd5b60008381526003602052604090206004015442106105d857600091506105f8565b6000838152600360205260409020600401546105f5904290611a6c565b91505b50919050565b6004602052816000526040600020818154811061061a57600080fd5b60009182526020909120600390910201805460018201546002909201546001600160a01b03909116935090915083565b61065261184a565b6001600160a01b03166000908152600760205260409020805460ff19166001179055565b606081600254811061069a5760405162461bcd60e51b81526004016105ae90611a26565b600083815260046020908152604080832080548251818502810185019093528083529193909284015b82821015610718576000848152602090819020604080516060810182526003860290920180546001600160a01b03168352600180820154848601526002909101549183019190915290835290920191016106c3565b50505050915050919050565b61072c61184a565b6107366000611877565b565b60008281526005602090815260408083206001600160a01b03851684529091529020545b92915050565b60008060008060008060008060008960025481106107925760405162461bcd60e51b81526004016105ae90611a26565b5050506000978852505060036020818152604097889020885161012081018a52815480825260018301546001600160a01b0390811694830185905260028401549b83018c90529483015460608301819052600484015460808401819052600585015490961660a08401819052600685015460c0850181905260079095015460ff808216151560e0870181905261010092839004909116151591909501819052929d959c9b509099509497509395509093509190565b61084f6118c9565b8060025481106108715760405162461bcd60e51b81526004016105ae90611a26565b600082815260036020526040902060070154829060ff166108c95760405162461bcd60e51b81526020600482015260126024820152712632b630b733903a34b230b59030b5ba34b360711b60448201526064016105ae565b600081815260036020526040902060070154610100900460ff16156109275760405162461bcd60e51b81526020600482015260146024820152734c656c616e672073756461682073656c6573616960601b60448201526064016105ae565b600081815260036020526040902060040154421061097f5760405162461bcd60e51b81526020600482015260156024820152742632b630b7339039bab230b4103132b930b5b434b960591b60448201526064016105ae565b600083815260036020526040902060018101546001600160a01b031633036109e25760405162461bcd60e51b815260206004820152601660248201527514195b5a5b1a5ac81d1a59185ac8189a5cd848189a5960521b60448201526064016105ae565b3360009081526007602052604090205460ff1615610a395760405162461bcd60e51b815260206004820152601460248201527310591b5a5b881d1a59185ac8189a5cd848189a5960621b60448201526064016105ae565b600084815260056020908152604080832033845290915281205490610a5e3483611a7f565b90508260060154600003610abd578260020154811015610ab85760405162461bcd60e51b8152602060048201526015602482015274109a59081a185c9d5cc80f8f48189a5908185dd85b605a1b60448201526064016105ae565b610b37565b82600301548360060154610ad19190611a7f565b811015610b375760405162461bcd60e51b815260206004820152602e60248201527f426964206861727573203e3d206269642074657274696e676769202b206d696e60448201526d1a5b585b081a5b98dc995b595b9d60921b60648201526084016105ae565b81600003610b6e5760008681526006602090815260408220805460018101825590835291200180546001600160a01b031916331790555b60008681526005602081815260408084203380865290835281852086905592870180546001600160a01b03199081168517909155600688018690558a855260048352818520825160608101845285815280850188815242828601908152835460018181018655948a52988790209251600390990290920180549094166001600160a01b0390981697909717835595519082015593516002909401939093559151838152909188917f0e54eff26401bf69b81b26f60bd85ef47f5d85275c1d268d84f68d6897431c47910160405180910390a35050505050610c4f6001600055565b50565b6000816002548110610c765760405162461bcd60e51b81526004016105ae90611a26565b505060009081526003602052604090206004015442101590565b6000806000806000856002548110610cba5760405162461bcd60e51b81526004016105ae90611a26565b600087815260066020908152604080832080548251818502810185019093528083529192909190830182828015610d1a57602002820191906000526020600020905b81546001600160a01b03168152600190910190602001808311610cfc575b505050505090508051600003610d425760008060008060009650965096509650965050610e78565b600081600081518110610d5757610d57611a92565b60209081029190910181015160008b81526005835260408082206001600160a01b0384168352909352918220548451919350919084908290610d9b57610d9b611a92565b602090810291909101015190508160015b8551811015610e675760008d815260056020526040812087518290899085908110610dd957610dd9611a92565b60200260200101516001600160a01b03166001600160a01b0316815260200190815260200160002054905084811115610e2c57809450868281518110610e2157610e21611a92565b602002602001015195505b82811015610e5457809250868281518110610e4957610e49611a92565b602002602001015193505b5080610e5f81611aa8565b915050610dac565b509351929950909750955090935091505b5091939590929450565b6000808411610ed35760405162461bcd60e51b815260206004820152601b60248201527f426964206177616c206861727573206c6562696820646172692030000000000060448201526064016105ae565b60008311610f2f5760405162461bcd60e51b8152602060048201526024808201527f4d696e696d616c20696e6372656d656e74206861727573206c656269682064616044820152630726920360e41b60648201526084016105ae565b60008211610f7f5760405162461bcd60e51b815260206004820152601960248201527f447572617369206861727573206c65626968206461726920300000000000000060448201526064016105ae565b600280549081906000610f9183611aa8565b9091555060009050610fa484603c611ac1565b610fae9042611a7f565b9050604051806101200160405280838152602001336001600160a01b0316815260200187815260200186815260200182815260200160006001600160a01b031681526020016000815260200160011515815260200160001515815250600360008481526020019081526020016000206000820151816000015560208201518160010160006101000a8154816001600160a01b0302191690836001600160a01b0316021790555060408201518160020155606082015181600301556080820151816004015560a08201518160050160006101000a8154816001600160a01b0302191690836001600160a01b0316021790555060c0820151816006015560e08201518160070160006101000a81548160ff0219169083151502179055506101008201518160070160016101000a81548160ff021916908315150217905550905050336001600160a01b0316827f05f9bf100dd0ca9f37f08e0526690286d357ed7d6c5a4ac29730440b6e2dfd6288888560405161113c939291909283526020830191909152604082015260600190565b60405180910390a350949350505050565b6111556118c9565b8060025481106111775760405162461bcd60e51b81526004016105ae90611a26565b6000828152600360205260409020600781015460ff166111ce5760405162461bcd60e51b81526020600482015260126024820152712632b630b733903a34b230b59030b5ba34b360711b60448201526064016105ae565b6007810154610100900460ff16156112245760405162461bcd60e51b81526020600482015260196024820152784c656c616e6720737564616820646966696e616c697361736960381b60448201526064016105ae565b80600401544210156112705760405162461bcd60e51b81526020600482015260156024820152742632b630b733903132b63ab6903132b930b5b434b960591b60448201526064016105ae565b60078101805461ffff191661010017905560058101546001600160a01b0316156114c357600681015460018201546040516001600160a01b039091169082156108fc029083906000818181858888f193505050501580156112d5573d6000803e3d6000fd5b5060008481526006602090815260408083208054825181850281018501909352808352919290919083018282801561133657602002820191906000526020600020905b81546001600160a01b03168152600190910190602001808311611318575b5050505050905060005b815181101561145557600082828151811061135d5761135d611a92565b602090810291909101015160058601549091506001600160a01b038083169116146114425760008781526005602090815260408083206001600160a01b038516845290915290205480156114405760008881526005602090815260408083206001600160a01b038616808552925280832083905551909183156108fc02918491818181858888f193505050501580156113fa573d6000803e3d6000fd5b50816001600160a01b0316887f7a482fdeb6bc9a1376f597068a214a7a39472bb2eff1b8cad21ba04f49ddca1b8360405161143791815260200190565b60405180910390a35b505b508061144d81611aa8565b915050611340565b50600085815260056020818152604080842092870180546001600160a01b0390811686529383528185209490945592549251858152929091169187917f4d9113a1377d665eaa1f9168a9c9080f2e488cb820b10149de3d6d2e0f2780c7910160405180910390a350506114fc565b60405160008082529084907f4d9113a1377d665eaa1f9168a9c9080f2e488cb820b10149de3d6d2e0f2780c79060200160405180910390a35b5050610c4f6001600055565b61151061184a565b6001600160a01b03811661153a57604051631e4fbdf760e01b8152600060048201526024016105ae565b610c4f81611877565b61154b6118c9565b3360009081526007602052604090205460ff16806115825750336115776001546001600160a01b031690565b6001600160a01b0316145b6115bc5760405162461bcd60e51b815260206004820152600b60248201526a213ab5b0b71030b236b4b760a91b60448201526064016105ae565b8060025481106115de5760405162461bcd60e51b81526004016105ae90611a26565b6000828152600360205260409020600781015460ff166116405760405162461bcd60e51b815260206004820152601860248201527f4c656c616e6720737564616820746964616b20616b746966000000000000000060448201526064016105ae565b6007810154610100900460ff16156116965760405162461bcd60e51b81526020600482015260196024820152784c656c616e6720737564616820646966696e616c697361736960381b60448201526064016105ae565b60078101805461ffff191661010017905560008381526006602090815260408083208054825181850281018501909352808352919290919083018282801561170757602002820191906000526020600020905b81546001600160a01b031681526001909101906020018083116116e9575b5050505050905060005b815181101561180f57600082828151811061172e5761172e611a92565b60209081029190910181015160008881526005835260408082206001600160a01b0384168352909352919091205490915080156117fa5760008781526005602090815260408083206001600160a01b038616808552925280832083905551909183156108fc02918491818181858888f193505050501580156117b4573d6000803e3d6000fd5b50816001600160a01b0316877f7a482fdeb6bc9a1376f597068a214a7a39472bb2eff1b8cad21ba04f49ddca1b836040516117f191815260200190565b60405180910390a35b5050808061180790611aa8565b915050611711565b50604051339085907f32ca2cffcc09e55beb72f2d2f8058a14731c3b3aa9a3cb1510f868a07810609d90600090a3505050610c4f6001600055565b6001546001600160a01b031633146107365760405163118cdaa760e01b81523360048201526024016105ae565b600180546001600160a01b038381166001600160a01b0319831681179093556040519116919082907f8be0079c531659141344cd1fd0a4f28419497f9722a3daafe3b4186f6b6457e090600090a35050565b6002600054036118ec57604051633ee5aeb560e01b815260040160405180910390fd5b6002600055565b6000806040838503121561190657600080fd5b50508035926020909101359150565b80356001600160a01b038116811461192c57600080fd5b919050565b60006020828403121561194357600080fd5b61194c82611915565b9392505050565b60006020828403121561196557600080fd5b5035919050565b6000806040838503121561197f57600080fd5b8235915061198f60208401611915565b90509250929050565b602080825282518282018190526000919060409081850190868401855b828110156119ed57815180516001600160a01b03168552868101518786015285015185850152606090930192908501906001016119b5565b5091979650505050505050565b600080600060608486031215611a0f57600080fd5b505081359360208301359350604090920135919050565b6020808252601690820152752632b630b733903a34b230b5903234ba32b6bab5b0b760511b604082015260600190565b634e487b7160e01b600052601160045260246000fd5b8181038181111561075c5761075c611a56565b8082018082111561075c5761075c611a56565b634e487b7160e01b600052603260045260246000fd5b600060018201611aba57611aba611a56565b5060010190565b808202811582820484141761075c5761075c611a5656fea2646970667358221220497866e1b70a38a9f9f7bbbf6ffa3b2d7c3efd160ca0a77f5180c907c2490db064736f6c63430008140033",
  "linkReferences": {},
  "deployedLinkReferences": {}
}