{
  "_format": "hh-sol-artifact-1",
  "contractName": "AuctionManager",
  "sourceName": "contracts/AuctionManager.sol",
  "abi": [
    {
      "inputs": [],
      "stateMutability": "nonpayable",
      "type": "constructor"
    },
    {
      "inputs": [
        {
          "internalType": "address",
          "name": "owner",
          "type": "address"
        }
      ],
      "name": "OwnableInvalidOwner",
      "type": "error"
    },
    {
      "inputs": [
        {
          "internalType": "address",
          "name": "account",
          "type": "address"
        }
      ],
      "name": "OwnableUnauthorizedAccount",
      "type": "error"
    },
    {
      "inputs": [],
      "name": "ReentrancyGuardReentrantCall",
      "type": "error"
    },
    {
      "anonymous": false,
      "inputs": [
        {
          "indexed": true,
          "internalType": "uint256",
          "name": "auctionId",
          "type": "uint256"
        },
        {
          "indexed": true,
          "internalType": "address",
          "name": "owner",
          "type": "address"
        },
        {
          "indexed": false,
          "internalType": "uint256",
          "name": "startingBid",
          "type": "uint256"
        },
        {
          "indexed": false,
          "internalType": "uint256",
          "name": "minBidIncrement",
          "type": "uint256"
        },
        {
          "indexed": false,
          "internalType": "uint256",
          "name": "endTime",
          "type": "uint256"
        }
      ],
      "name": "AuctionCreated",
      "type": "event"
    },
    {
      "anonymous": false,
      "inputs": [
        {
          "indexed": true,
          "internalType": "uint256",
          "name": "auctionId",
          "type": "uint256"
        },
        {
          "indexed": true,
          "internalType": "address",
          "name": "winner",
          "type": "address"
        },
        {
          "indexed": false,
          "internalType": "uint256",
          "name": "amount",
          "type": "uint256"
        }
      ],
      "name": "AuctionFinalized",
      "type": "event"
    },
    {
      "anonymous": false,
      "inputs": [
        {
          "indexed": true,
          "internalType": "uint256",
          "name": "auctionId",
          "type": "uint256"
        },
        {
          "indexed": true,
          "internalType": "address",
          "name": "stoppedBy",
          "type": "address"
        }
      ],
      "name": "AuctionStopped",
      "type": "event"
    },
    {
      "anonymous": false,
      "inputs": [
        {
          "indexed": true,
          "internalType": "uint256",
          "name": "auctionId",
          "type": "uint256"
        },
        {
          "indexed": true,
          "internalType": "address",
          "name": "bidder",
          "type": "address"
        },
        {
          "indexed": false,
          "internalType": "uint256",
          "name": "amount",
          "type": "uint256"
        }
      ],
      "name": "BidPlaced",
      "type": "event"
    },
    {
      "anonymous": false,
      "inputs": [
        {
          "indexed": true,
          "internalType": "uint256",
          "name": "auctionId",
          "type": "uint256"
        },
        {
          "indexed": true,
          "internalType": "address",
          "name": "bidder",
          "type": "address"
        },
        {
          "indexed": false,
          "internalType": "uint256",
          "name": "amount",
          "type": "uint256"
        }
      ],
      "name": "EmergencyRefund",
      "type": "event"
    },
    {
      "anonymous": false,
      "inputs": [
        {
          "indexed": true,
          "internalType": "uint256",
          "name": "auctionId",
          "type": "uint256"
        },
        {
          "indexed": true,
          "internalType": "address",
          "name": "owner",
          "type": "address"
        },
        {
          "indexed": false,
          "internalType": "uint256",
          "name": "amount",
          "type": "uint256"
        }
      ],
      "name": "EmergencyTransferToOwner",
      "type": "event"
    },
    {
      "anonymous": false,
      "inputs": [
        {
          "indexed": true,
          "internalType": "address",
          "name": "previousOwner",
          "type": "address"
        },
        {
          "indexed": true,
          "internalType": "address",
          "name": "newOwner",
          "type": "address"
        }
      ],
      "name": "OwnershipTransferred",
      "type": "event"
    },
    {
      "anonymous": false,
      "inputs": [
        {
          "indexed": true,
          "internalType": "uint256",
          "name": "auctionId",
          "type": "uint256"
        },
        {
          "indexed": true,
          "internalType": "address",
          "name": "bidder",
          "type": "address"
        },
        {
          "indexed": false,
          "internalType": "uint256",
          "name": "amount",
          "type": "uint256"
        }
      ],
      "name": "RefundIssued",
      "type": "event"
    },
    {
      "inputs": [
        {
          "internalType": "address",
          "name": "_admin",
          "type": "address"
        }
      ],
      "name": "addAdmin",
      "outputs": [],
      "stateMutability": "nonpayable",
      "type": "function"
    },
    {
      "inputs": [
        {
          "internalType": "uint256",
          "name": "auctionId",
          "type": "uint256"
        }
      ],
      "name": "adminEmergencyRefundAll",
      "outputs": [],
      "stateMutability": "nonpayable",
      "type": "function"
    },
    {
      "inputs": [
        {
          "internalType": "uint256",
          "name": "auctionId",
          "type": "uint256"
        },
        {
          "internalType": "address",
          "name": "bidder",
          "type": "address"
        }
      ],
      "name": "adminEmergencyRefundSingle",
      "outputs": [],
      "stateMutability": "nonpayable",
      "type": "function"
    },
    {
      "inputs": [
        {
          "internalType": "uint256",
          "name": "auctionId",
          "type": "uint256"
        }
      ],
      "name": "adminForceTransferToOwner",
      "outputs": [],
      "stateMutability": "nonpayable",
      "type": "function"
    },
    {
      "inputs": [
        {
          "internalType": "uint256",
          "name": "auctionId",
          "type": "uint256"
        }
      ],
      "name": "adminStopAuction",
      "outputs": [],
      "stateMutability": "nonpayable",
      "type": "function"
    },
    {
      "inputs": [
        {
          "internalType": "address",
          "name": "",
          "type": "address"
        }
      ],
      "name": "admins",
      "outputs": [
        {
          "internalType": "bool",
          "name": "",
          "type": "bool"
        }
      ],
      "stateMutability": "view",
      "type": "function"
    },
    {
      "inputs": [
        {
          "internalType": "uint256",
          "name": "",
          "type": "uint256"
        },
        {
          "internalType": "uint256",
          "name": "",
          "type": "uint256"
        }
      ],
      "name": "auctionBidders",
      "outputs": [
        {
          "internalType": "address",
          "name": "",
          "type": "address"
        }
      ],
      "stateMutability": "view",
      "type": "function"
    },
    {
      "inputs": [
        {
          "internalType": "uint256",
          "name": "",
          "type": "uint256"
        },
        {
          "internalType": "uint256",
          "name": "",
          "type": "uint256"
        }
      ],
      "name": "auctionBids",
      "outputs": [
        {
          "internalType": "address",
          "name": "bidder",
          "type": "address"
        },
        {
          "internalType": "uint256",
          "name": "amount",
          "type": "uint256"
        },
        {
          "internalType": "uint256",
          "name": "timestamp",
          "type": "uint256"
        }
      ],
      "stateMutability": "view",
      "type": "function"
    },
    {
      "inputs": [
        {
          "internalType": "uint256",
          "name": "",
          "type": "uint256"
        }
      ],
      "name": "auctions",
      "outputs": [
        {
          "internalType": "uint256",
          "name": "id",
          "type": "uint256"
        },
        {
          "internalType": "address payable",
          "name": "owner",
          "type": "address"
        },
        {
          "internalType": "uint256",
          "name": "startingBid",
          "type": "uint256"
        },
        {
          "internalType": "uint256",
          "name": "minBidIncrement",
          "type": "uint256"
        },
        {
          "internalType": "uint256",
          "name": "endTime",
          "type": "uint256"
        },
        {
          "internalType": "address",
          "name": "highestBidder",
          "type": "address"
        },
        {
          "internalType": "uint256",
          "name": "highestBid",
          "type": "uint256"
        },
        {
          "internalType": "bool",
          "name": "isActive",
          "type": "bool"
        },
        {
          "internalType": "bool",
          "name": "isFinalized",
          "type": "bool"
        }
      ],
      "stateMutability": "view",
      "type": "function"
    },
    {
      "inputs": [
        {
          "internalType": "uint256",
          "name": "",
          "type": "uint256"
        },
        {
          "internalType": "address",
          "name": "",
          "type": "address"
        }
      ],
      "name": "bidderDeposits",
      "outputs": [
        {
          "internalType": "uint256",
          "name": "",
          "type": "uint256"
        }
      ],
      "stateMutability": "view",
      "type": "function"
    },
    {
      "inputs": [
        {
          "internalType": "uint256",
          "name": "_startingBid",
          "type": "uint256"
        },
        {
          "internalType": "uint256",
          "name": "_minBidIncrement",
          "type": "uint256"
        },
        {
          "internalType": "uint256",
          "name": "_durationMinutes",
          "type": "uint256"
        }
      ],
      "name": "createAuction",
      "outputs": [
        {
          "internalType": "uint256",
          "name": "",
          "type": "uint256"
        }
      ],
      "stateMutability": "nonpayable",
      "type": "function"
    },
    {
      "inputs": [
        {
          "internalType": "uint256",
          "name": "auctionId",
          "type": "uint256"
        }
      ],
      "name": "finalizeAuction",
      "outputs": [],
      "stateMutability": "nonpayable",
      "type": "function"
    },
    {
      "inputs": [
        {
          "internalType": "uint256",
          "name": "auctionId",
          "type": "uint256"
        }
      ],
      "name": "getAuction",
      "outputs": [
        {
          "internalType": "uint256",
          "name": "id",
          "type": "uint256"
        },
        {
          "internalType": "address",
          "name": "owner",
          "type": "address"
        },
        {
          "internalType": "uint256",
          "name": "startingBid",
          "type": "uint256"
        },
        {
          "internalType": "uint256",
          "name": "minBidIncrement",
          "type": "uint256"
        },
        {
          "internalType": "uint256",
          "name": "endTime",
          "type": "uint256"
        },
        {
          "internalType": "address",
          "name": "highestBidder",
          "type": "address"
        },
        {
          "internalType": "uint256",
          "name": "highestBid",
          "type": "uint256"
        },
        {
          "internalType": "bool",
          "name": "isActive",
          "type": "bool"
        },
        {
          "internalType": "bool",
          "name": "isFinalized",
          "type": "bool"
        }
      ],
      "stateMutability": "view",
      "type": "function"
    },
    {
      "inputs": [
        {
          "internalType": "uint256",
          "name": "auctionId",
          "type": "uint256"
        }
      ],
      "name": "getAuctionBiddersWithDeposits",
      "outputs": [
        {
          "internalType": "address[]",
          "name": "bidders",
          "type": "address[]"
        },
        {
          "internalType": "uint256[]",
          "name": "deposits",
          "type": "uint256[]"
        }
      ],
      "stateMutability": "view",
      "type": "function"
    },
    {
      "inputs": [
        {
          "internalType": "uint256",
          "name": "auctionId",
          "type": "uint256"
        }
      ],
      "name": "getAuctionBids",
      "outputs": [
        {
          "components": [
            {
              "internalType": "address",
              "name": "bidder",
              "type": "address"
            },
            {
              "internalType": "uint256",
              "name": "amount",
              "type": "uint256"
            },
            {
              "internalType": "uint256",
              "name": "timestamp",
              "type": "uint256"
            }
          ],
          "internalType": "struct AuctionManager.Bid[]",
          "name": "",
          "type": "tuple[]"
        }
      ],
      "stateMutability": "view",
      "type": "function"
    },
    {
      "inputs": [],
      "name": "getAuctionCount",
      "outputs": [
        {
          "internalType": "uint256",
          "name": "",
          "type": "uint256"
        }
      ],
      "stateMutability": "view",
      "type": "function"
    },
    {
      "inputs": [
        {
          "internalType": "uint256",
          "name": "auctionId",
          "type": "uint256"
        },
        {
          "internalType": "address",
          "name": "bidder",
          "type": "address"
        }
      ],
      "name": "getBidderDeposit",
      "outputs": [
        {
          "internalType": "uint256",
          "name": "",
          "type": "uint256"
        }
      ],
      "stateMutability": "view",
      "type": "function"
    },
    {
      "inputs": [],
      "name": "getContractBalance",
      "outputs": [
        {
          "internalType": "uint256",
          "name": "",
          "type": "uint256"
        }
      ],
      "stateMutability": "view",
      "type": "function"
    },
    {
      "inputs": [
        {
          "internalType": "uint256",
          "name": "auctionId",
          "type": "uint256"
        }
      ],
      "name": "getLeaderboard",
      "outputs": [
        {
          "internalType": "address",
          "name": "highestBidder",
          "type": "address"
        },
        {
          "internalType": "uint256",
          "name": "highestBid",
          "type": "uint256"
        },
        {
          "internalType": "address",
          "name": "lowestBidder",
          "type": "address"
        },
        {
          "internalType": "uint256",
          "name": "lowestBid",
          "type": "uint256"
        },
        {
          "internalType": "uint256",
          "name": "totalBidders",
          "type": "uint256"
        }
      ],
      "stateMutability": "view",
      "type": "function"
    },
    {
      "inputs": [
        {
          "internalType": "uint256",
          "name": "auctionId",
          "type": "uint256"
        }
      ],
      "name": "getRemainingTime",
      "outputs": [
        {
          "internalType": "uint256",
          "name": "",
          "type": "uint256"
        }
      ],
      "stateMutability": "view",
      "type": "function"
    },
    {
      "inputs": [
        {
          "internalType": "uint256",
          "name": "auctionId",
          "type": "uint256"
        },
        {
          "internalType": "address",
          "name": "bidder",
          "type": "address"
        }
      ],
      "name": "getStuckDeposit",
      "outputs": [
        {
          "internalType": "uint256",
          "name": "",
          "type": "uint256"
        }
      ],
      "stateMutability": "view",
      "type": "function"
    },
    {
      "inputs": [
        {
          "internalType": "address",
          "name": "user",
          "type": "address"
        }
      ],
      "name": "getUserActiveAuction",
      "outputs": [
        {
          "internalType": "bool",
          "name": "hasActive",
          "type": "bool"
        },
        {
          "internalType": "uint256",
          "name": "auctionId",
          "type": "uint256"
        },
        {
          "internalType": "bool",
          "name": "isFinished",
          "type": "bool"
        }
      ],
      "stateMutability": "view",
      "type": "function"
    },
    {
      "inputs": [
        {
          "internalType": "uint256",
          "name": "auctionId",
          "type": "uint256"
        }
      ],
      "name": "isAuctionEnded",
      "outputs": [
        {
          "internalType": "bool",
          "name": "",
          "type": "bool"
        }
      ],
      "stateMutability": "view",
      "type": "function"
    },
    {
      "inputs": [],
      "name": "owner",
      "outputs": [
        {
          "internalType": "address",
          "name": "",
          "type": "address"
        }
      ],
      "stateMutability": "view",
      "type": "function"
    },
    {
      "inputs": [
        {
          "internalType": "uint256",
          "name": "auctionId",
          "type": "uint256"
        }
      ],
      "name": "placeBid",
      "outputs": [],
      "stateMutability": "payable",
      "type": "function"
    },
    {
      "inputs": [
        {
          "internalType": "address",
          "name": "_admin",
          "type": "address"
        }
      ],
      "name": "removeAdmin",
      "outputs": [],
      "stateMutability": "nonpayable",
      "type": "function"
    },
    {
      "inputs": [],
      "name": "renounceOwnership",
      "outputs": [],
      "stateMutability": "nonpayable",
      "type": "function"
    },
    {
      "inputs": [
        {
          "internalType": "address",
          "name": "newOwner",
          "type": "address"
        }
      ],
      "name": "transferOwnership",
      "outputs": [],
      "stateMutability": "nonpayable",
      "type": "function"
    },
    {
      "inputs": [
        {
          "internalType": "address",
          "name": "",
          "type": "address"
        }
      ],
      "name": "userActiveAuction",
      "outputs": [
        {
          "internalType": "uint256",
          "name": "",
          "type": "uint256"
        }
      ],
      "stateMutability": "view",
      "type": "function"
    }
  ],
  "bytecode": "0x60806040523480156200001157600080fd5b50600160005533806200003e57604051631e4fbdf760e01b81526000600482015260240160405180910390fd5b62000049816200006a565b50336000908152600760205260409020805460ff19166001179055620000bc565b600180546001600160a01b038381166001600160a01b0319831681179093556040519116919082907f8be0079c531659141344cd1fd0a4f28419497f9722a3daafe3b4186f6b6457e090600090a35050565b612e7580620000cc6000396000f3fe6080604052600436106101c25760003560e01c806370b4768e116100f7578063998f1b8711610095578063cda4beef11610064578063cda4beef1461066e578063e80838631461068e578063f2fde38b146106ae578063fc296017146106ce57600080fd5b8063998f1b87146105b35780639deb187c146105d3578063a34b46fe14610600578063c44e66401461065957600080fd5b806377d47d24116100d157806377d47d241461054257806378bd7935146105625780638da5cb5b146105825780639979ef45146105a057600080fd5b806370b4768e146104e0578063715018a61461050d5780637614e9ab1461052257600080fd5b8063277206be11610164578063571a26a01161013e578063571a26a0146103995780635f93de49146104685780636f9fb98a146104ad57806370480275146104c057600080fd5b8063277206be146103015780634184e8b114610339578063429b62e51461035957600080fd5b806314c199f3116101a057806314c199f3146102465780631785f53c14610285578063181e0124146102a557806323b2e00d146102d357600080fd5b806303045df2146101c75780630f715f1d146101e957806312d4319914610226575b600080fd5b3480156101d357600080fd5b506101e76101e2366004612b60565b6106ee565b005b3480156101f557600080fd5b50610209610204366004612b8c565b61093f565b6040516001600160a01b0390911681526020015b60405180910390f35b34801561023257600080fd5b506101e7610241366004612bae565b610977565b34801561025257600080fd5b50610266610261366004612bc7565b610c0b565b604080519315158452602084019290925215159082015260600161021d565b34801561029157600080fd5b506101e76102a0366004612bc7565b610d0f565b3480156102b157600080fd5b506102c56102c0366004612bae565b610d38565b60405190815260200161021d565b3480156102df57600080fd5b506102f36102ee366004612bae565b610da3565b60405161021d929190612be9565b34801561030d57600080fd5b506102c561031c366004612b60565b600560209081526000928352604080842090915290825290205481565b34801561034557600080fd5b506102c5610354366004612b60565b610f0e565b34801561036557600080fd5b50610389610374366004612bc7565b60076020526000908152604090205460ff1681565b604051901515815260200161021d565b3480156103a557600080fd5b506104126103b4366004612bae565b60036020819052600091825260409091208054600182015460028301549383015460048401546005850154600686015460079096015494966001600160a01b0394851696909593949293929091169160ff8082169161010090041689565b60408051998a526001600160a01b0398891660208b01528901969096526060880194909452608087019290925290931660a085015260c084019290925290151560e083015215156101008201526101200161021d565b34801561047457600080fd5b50610488610483366004612b8c565b610f5c565b604080516001600160a01b03909416845260208401929092529082015260600161021d565b3480156104b957600080fd5b50476102c5565b3480156104cc57600080fd5b506101e76104db366004612bc7565b610fa8565b3480156104ec57600080fd5b506105006104fb366004612bae565b610fd4565b60405161021d9190612c6d565b34801561051957600080fd5b506101e7611082565b34801561052e57600080fd5b506102c561053d366004612b60565b611096565b34801561054e57600080fd5b506101e761055d366004612bae565b6110c0565b34801561056e57600080fd5b5061041261057d366004612bae565b61134d565b34801561058e57600080fd5b506001546001600160a01b0316610209565b6101e76105ae366004612bae565b611432565b3480156105bf57600080fd5b506103896105ce366004612bae565b6119c5565b3480156105df57600080fd5b506102c56105ee366004612bc7565b60086020526000908152604090205481565b34801561060c57600080fd5b5061062061061b366004612bae565b611a03565b604080516001600160a01b039687168152602081019590955292909416918301919091526060820152608081019190915260a00161021d565b34801561066557600080fd5b506002546102c5565b34801561067a57600080fd5b506102c5610689366004612ccf565b611c52565b34801561069a57600080fd5b506101e76106a9366004612bae565b611f1d565b3480156106ba57600080fd5b506101e76106c9366004612bc7565b6123f8565b3480156106da57600080fd5b506101e76106e9366004612bae565b612433565b6106f6612a9b565b3360009081526007602052604090205460ff168061072d5750336107226001546001600160a01b031690565b6001600160a01b0316145b6107525760405162461bcd60e51b815260040161074990612cfb565b60405180910390fd5b8160025481106107745760405162461bcd60e51b815260040161074990612d20565b60008381526005602090815260408083206001600160a01b0386168452909152902054806107f05760405162461bcd60e51b8152602060048201526024808201527f546964616b20616461206465706f73697420756e74756b2064696b656d62616c60448201526334b5b0b760e11b6064820152608401610749565b60008481526005602090815260408083206001600160a01b038716845290915281205561081e846001612d66565b6001600160a01b03841660009081526008602052604090205403610856576001600160a01b0383166000908152600860205260408120555b6000836001600160a01b03168260405160006040518083038185875af1925050503d80600081146108a3576040519150601f19603f3d011682016040523d82523d6000602084013e6108a8565b606091505b50509050806108ea5760405162461bcd60e51b815260206004820152600e60248201526d151c985b9cd9995c8819d859d85b60921b6044820152606401610749565b836001600160a01b0316857fbd634c7bdf536d4ef89dad94ea8933d03e5fbb8be4f85fc7699f5859497d793f8460405161092691815260200190565b60405180910390a350505061093b6001600055565b5050565b6006602052816000526040600020818154811061095b57600080fd5b6000918252602090912001546001600160a01b03169150829050565b61097f612a9b565b3360009081526007602052604090205460ff16806109b65750336109ab6001546001600160a01b031690565b6001600160a01b0316145b6109d25760405162461bcd60e51b815260040161074990612cfb565b8060025481106109f45760405162461bcd60e51b815260040161074990612d20565b600082815260036020526040902060058101546001600160a01b0316610a515760405162461bcd60e51b8152602060048201526012602482015271546964616b206164612070656d656e616e6760701b6044820152606401610749565b6000838152600560208181526040808420928501546001600160a01b0316845291905290205480610ace5760405162461bcd60e51b815260206004820152602160248201527f4465706f7369742070656d656e616e672073756461682064697472616e7366656044820152603960f91b6064820152608401610749565b6000848152600560208181526040808420928601546001600160a01b03168452919052812055610aff846001612d66565b60058301546001600160a01b031660009081526008602052604090205403610b3f5760058201546001600160a01b03166000908152600860205260408120555b60018201546040516000916001600160a01b03169083908381818185875af1925050503d8060008114610b8e576040519150601f19603f3d011682016040523d82523d6000602084013e610b93565b606091505b5050905080610bb45760405162461bcd60e51b815260040161074990612d79565b60018301546040518381526001600160a01b039091169086907fcb59166e83a84a7eb6a3d20cbf894b539b7ad536d1bfadbb8198b252b23879909060200160405180910390a350505050610c086001600055565b50565b6001600160a01b03811660009081526008602052604081205481908190808203610c4057600080600193509350935050610d08565b6000610c4d600183612db0565b60008181526003602081815260408084208151610120810183528154815260018201546001600160a01b039081169482019490945260028201549281019290925292830154606082015260048301546080820152600583015490911660a0820152600682015460c082015260079091015460ff808216151560e0840152610100918290041615159082018190529293509180610ceb57508160e00151155b80610cfa575081608001514210155b600197509295509193505050505b9193909250565b610d17612ac5565b6001600160a01b03166000908152600760205260409020805460ff19169055565b6000816002548110610d5c5760405162461bcd60e51b815260040161074990612d20565b6000838152600360205260409020600401544210610d7d5760009150610d9d565b600083815260036020526040902060040154610d9a904290612db0565b91505b50919050565b606080826002548110610dc85760405162461bcd60e51b815260040161074990612d20565b600084815260066020908152604080832080548251818502810185019093528083529192909190830182828015610e2857602002820191906000526020600020905b81546001600160a01b03168152600190910190602001808311610e0a575b505050505090506000815167ffffffffffffffff811115610e4b57610e4b612dc3565b604051908082528060200260200182016040528015610e74578160200160208202803683370190505b50905060005b8251811015610f0257600560008881526020019081526020016000206000848381518110610eaa57610eaa612dd9565b60200260200101516001600160a01b03166001600160a01b0316815260200190815260200160002054828281518110610ee557610ee5612dd9565b602090810291909101015280610efa81612def565b915050610e7a565b50909350915050915091565b6000826002548110610f325760405162461bcd60e51b815260040161074990612d20565b505060009182526005602090815260408084206001600160a01b0393909316845291905290205490565b60046020528160005260406000208181548110610f7857600080fd5b60009182526020909120600390910201805460018201546002909201546001600160a01b03909116935090915083565b610fb0612ac5565b6001600160a01b03166000908152600760205260409020805460ff19166001179055565b6060816002548110610ff85760405162461bcd60e51b815260040161074990612d20565b600083815260046020908152604080832080548251818502810185019093528083529193909284015b82821015611076576000848152602090819020604080516060810182526003860290920180546001600160a01b0316835260018082015484860152600290910154918301919091529083529092019101611021565b50505050915050919050565b61108a612ac5565b6110946000612af2565b565b60008281526005602090815260408083206001600160a01b03851684529091529020545b92915050565b6110c8612a9b565b3360009081526007602052604090205460ff16806110ff5750336110f46001546001600160a01b031690565b6001600160a01b0316145b61111b5760405162461bcd60e51b815260040161074990612cfb565b80600254811061113d5760405162461bcd60e51b815260040161074990612d20565b60008281526003602090815260408083206006835281842080548351818602810186019094528084529194939091908301828280156111a557602002820191906000526020600020905b81546001600160a01b03168152600190910190602001808311611187575b5050505050905060005b815181101561133f5760008282815181106111cc576111cc612dd9565b602090810291909101015160058501549091506001600160a01b03908116908216036111f8575061132d565b60008681526005602090815260408083206001600160a01b0385168452909152902054801561132a5760008781526005602090815260408083206001600160a01b038616845290915281205561124f876001612d66565b6001600160a01b03831660009081526008602052604090205403611287576001600160a01b0382166000908152600860205260408120555b6000826001600160a01b03168260405160006040518083038185875af1925050503d80600081146112d4576040519150601f19603f3d011682016040523d82523d6000602084013e6112d9565b606091505b50509050801561132857826001600160a01b0316887fbd634c7bdf536d4ef89dad94ea8933d03e5fbb8be4f85fc7699f5859497d793f8460405161131f91815260200190565b60405180910390a35b505b50505b8061133781612def565b9150506111af565b50505050610c086001600055565b600080600080600080600080600089600254811061137d5760405162461bcd60e51b815260040161074990612d20565b5050506000978852505060036020818152604097889020885161012081018a52815480825260018301546001600160a01b0390811694830185905260028401549b83018c90529483015460608301819052600484015460808401819052600585015490961660a08401819052600685015460c0850181905260079095015460ff808216151560e0870181905261010092839004909116151591909501819052929d959c9b509099509497509395509093509190565b61143a612a9b565b80600254811061145c5760405162461bcd60e51b815260040161074990612d20565b600082815260036020526040902060070154829060ff166114b45760405162461bcd60e51b81526020600482015260126024820152712632b630b733903a34b230b59030b5ba34b360711b6044820152606401610749565b600081815260036020526040902060070154610100900460ff16156115125760405162461bcd60e51b81526020600482015260146024820152734c656c616e672073756461682073656c6573616960601b6044820152606401610749565b600081815260036020526040902060040154421061156a5760405162461bcd60e51b81526020600482015260156024820152742632b630b7339039bab230b4103132b930b5b434b960591b6044820152606401610749565b600083815260036020526040902060018101546001600160a01b031633036115cd5760405162461bcd60e51b815260206004820152601660248201527514195b5a5b1a5ac81d1a59185ac8189a5cd848189a5960521b6044820152606401610749565b3360009081526007602052604090205460ff16156116245760405162461bcd60e51b815260206004820152601460248201527310591b5a5b881d1a59185ac8189a5cd848189a5960621b6044820152606401610749565b336000908152600860205260409020548015611790576000611647600183612db0565b905085811461178e576000818152600360208181526040928390208351610120810185528154815260018201546001600160a01b03908116938201939093526002820154948101949094529182015460608401526004820154608084015260058201541660a0830152600681015460c08301526007015460ff808216151560e084015261010091829004161515908201819052806116e757508060e00151155b806116f6575080608001514210155b61177c5760405162461bcd60e51b815260206004820152604b60248201527f416e6461206d6173696820616b746966206469206c656c616e67206c61696e2e60448201527f2053656c657361696b616e2064756c7520736562656c756d206269642064692060648201526a3632b630b7339034b7349760a91b608482015260a401610749565b50336000908152600860205260408120555b505b6000858152600560209081526040808320338452909152812054906117b53483612d66565b9050836006015460000361181457836002015481101561180f5760405162461bcd60e51b8152602060048201526015602482015274109a59081a185c9d5cc80f8f48189a5908185dd85b605a1b6044820152606401610749565b61188e565b836003015484600601546118289190612d66565b81101561188e5760405162461bcd60e51b815260206004820152602e60248201527f426964206861727573203e3d206269642074657274696e676769202b206d696e60448201526d1a5b585b081a5b98dc995b595b9d60921b6064820152608401610749565b816000036118e35760008781526006602090815260408220805460018181018355918452919092200180546001600160a01b031916331790556118d2908890612d66565b336000908152600860205260409020555b60008781526005602081815260408084203380865290835281852086905592880180546001600160a01b03199081168517909155600689018690558b855260048352818520825160608101845285815280850188815242828601908152835460018181018655948a52988790209251600390990290920180549094166001600160a01b0390981697909717835595519082015593516002909401939093559151838152909189917f0e54eff26401bf69b81b26f60bd85ef47f5d85275c1d268d84f68d6897431c47910160405180910390a3505050505050610c086001600055565b60008160025481106119e95760405162461bcd60e51b815260040161074990612d20565b505060009081526003602052604090206004015442101590565b6000806000806000856002548110611a2d5760405162461bcd60e51b815260040161074990612d20565b6000878152600360209081526040808320600683528184208054835181860281018601909452808452919493909190830182828015611a9557602002820191906000526020600020905b81546001600160a01b03168152600190910190602001808311611a77575b505050505090508051600003611abe576000806000806000975097509750975097505050611c48565b6007820154610100900460ff1680611adb5750600782015460ff16155b15611b0957600582015460069092015490516001600160a01b03909216975095508694508593509150611c48565b600081600081518110611b1e57611b1e612dd9565b602002602001015190506000600560008c8152602001908152602001600020600084600081518110611b5257611b52612dd9565b60200260200101516001600160a01b03166001600160a01b031681526020019081526020016000205490506000600190505b8351811015611c235760008c815260056020526040812085518290879085908110611bb157611bb1612dd9565b60200260200101516001600160a01b03166001600160a01b03168152602001908152602001600020549050600081118015611beb57508281105b15611c1057809250848281518110611c0557611c05612dd9565b602002602001015193505b5080611c1b81612def565b915050611b84565b50600584015460069094015492516001600160a01b0390941699509197509550935091505b5091939590929450565b6000808411611ca35760405162461bcd60e51b815260206004820152601b60248201527f426964206177616c206861727573206c656269682064617269203000000000006044820152606401610749565b60008311611cff5760405162461bcd60e51b8152602060048201526024808201527f4d696e696d616c20696e6372656d656e74206861727573206c656269682064616044820152630726920360e41b6064820152608401610749565b60008211611d4f5760405162461bcd60e51b815260206004820152601960248201527f447572617369206861727573206c6562696820646172692030000000000000006044820152606401610749565b600280549081906000611d6183612def565b9091555060009050611d7484603c612e08565b611d7e9042612d66565b9050604051806101200160405280838152602001336001600160a01b0316815260200187815260200186815260200182815260200160006001600160a01b031681526020016000815260200160011515815260200160001515815250600360008481526020019081526020016000206000820151816000015560208201518160010160006101000a8154816001600160a01b0302191690836001600160a01b0316021790555060408201518160020155606082015181600301556080820151816004015560a08201518160050160006101000a8154816001600160a01b0302191690836001600160a01b0316021790555060c0820151816006015560e08201518160070160006101000a81548160ff0219169083151502179055506101008201518160070160016101000a81548160ff021916908315150217905550905050336001600160a01b0316827f05f9bf100dd0ca9f37f08e0526690286d357ed7d6c5a4ac29730440b6e2dfd62888885604051611f0c939291909283526020830191909152604082015260600190565b60405180910390a350949350505050565b611f25612a9b565b806002548110611f475760405162461bcd60e51b815260040161074990612d20565b6000828152600360205260409020600781015460ff16611f9e5760405162461bcd60e51b81526020600482015260126024820152712632b630b733903a34b230b59030b5ba34b360711b6044820152606401610749565b6007810154610100900460ff1615611ff45760405162461bcd60e51b81526020600482015260196024820152784c656c616e6720737564616820646966696e616c697361736960381b6044820152606401610749565b80600401544210156120405760405162461bcd60e51b81526020600482015260156024820152742632b630b733903132b63ab6903132b930b5b434b960591b6044820152606401610749565b60078101805461ffff19166101001790556000838152600660209081526040808320805482518185028101850190935280835291929091908301828280156120b157602002820191906000526020600020905b81546001600160a01b03168152600190910190602001808311612093575b5050505050905060005b815181101561216a576120cf856001612d66565b600860008484815181106120e5576120e5612dd9565b60200260200101516001600160a01b03166001600160a01b0316815260200190815260200160002054036121585760006008600084848151811061212b5761212b612dd9565b60200260200101516001600160a01b03166001600160a01b03168152602001908152602001600020819055505b8061216281612def565b9150506120bb565b5060058201546001600160a01b0316156123c4576000848152600560208181526040808420928601546001600160a01b031684529190528120805491905580156122255760018301546040516000916001600160a01b03169083908381818185875af1925050503d80600081146121fd576040519150601f19603f3d011682016040523d82523d6000602084013e612202565b606091505b50509050806122235760405162461bcd60e51b815260040161074990612d79565b505b60005b825181101561238957600083828151811061224557612245612dd9565b602090810291909101015160058601549091506001600160a01b038083169116146123765760008781526005602090815260408083206001600160a01b038516845290915290205480156123745760008881526005602090815260408083206001600160a01b03861680855292528083208390555183908381818185875af1925050503d80600081146122f4576040519150601f19603f3d011682016040523d82523d6000602084013e6122f9565b606091505b50509050801561234c57826001600160a01b0316897f7a482fdeb6bc9a1376f597068a214a7a39472bb2eff1b8cad21ba04f49ddca1b8460405161233f91815260200190565b60405180910390a3612372565b60008981526005602090815260408083206001600160a01b038716845290915290208290555b505b505b508061238181612def565b915050612228565b5060058301546040518281526001600160a01b03909116908690600080516020612e208339815191529060200160405180910390a3506123eb565b6040516000808252908590600080516020612e208339815191529060200160405180910390a35b505050610c086001600055565b612400612ac5565b6001600160a01b03811661242a57604051631e4fbdf760e01b815260006004820152602401610749565b610c0881612af2565b61243b612a9b565b3360009081526007602052604090205460ff16806124725750336124676001546001600160a01b031690565b6001600160a01b0316145b61248e5760405162461bcd60e51b815260040161074990612cfb565b8060025481106124b05760405162461bcd60e51b815260040161074990612d20565b6000828152600360205260409020600781015460ff166125125760405162461bcd60e51b815260206004820152601860248201527f4c656c616e6720737564616820746964616b20616b74696600000000000000006044820152606401610749565b6007810154610100900460ff16156125685760405162461bcd60e51b81526020600482015260196024820152784c656c616e6720737564616820646966696e616c697361736960381b6044820152606401610749565b60078101805461ffff19166101001790556000838152600660209081526040808320805482518185028101850190935280835291929091908301828280156125d957602002820191906000526020600020905b81546001600160a01b031681526001909101906020018083116125bb575b5050505050905060005b8151811015612692576125f7856001612d66565b6008600084848151811061260d5761260d612dd9565b60200260200101516001600160a01b03166001600160a01b0316815260200190815260200160002054036126805760006008600084848151811061265357612653612dd9565b60200260200101516001600160a01b03166001600160a01b03168152602001908152602001600020819055505b8061268a81612def565b9150506125e3565b5060058201546001600160a01b0316156128ec576000848152600560208181526040808420928601546001600160a01b0316845291905281208054919055801561274d5760018301546040516000916001600160a01b03169083908381818185875af1925050503d8060008114612725576040519150601f19603f3d011682016040523d82523d6000602084013e61272a565b606091505b505090508061274b5760405162461bcd60e51b815260040161074990612d79565b505b60005b82518110156128b157600083828151811061276d5761276d612dd9565b602090810291909101015160058601549091506001600160a01b0380831691161461289e5760008781526005602090815260408083206001600160a01b0385168452909152902054801561289c5760008881526005602090815260408083206001600160a01b03861680855292528083208390555183908381818185875af1925050503d806000811461281c576040519150601f19603f3d011682016040523d82523d6000602084013e612821565b606091505b50509050801561287457826001600160a01b0316897f7a482fdeb6bc9a1376f597068a214a7a39472bb2eff1b8cad21ba04f49ddca1b8460405161286791815260200190565b60405180910390a361289a565b60008981526005602090815260408083206001600160a01b038716845290915290208290555b505b505b50806128a981612def565b915050612750565b5060058301546040518281526001600160a01b03909116908690600080516020612e208339815191529060200160405180910390a350612a61565b60005b8151811015612a3957600082828151811061290c5761290c612dd9565b60209081029190910181015160008881526005835260408082206001600160a01b038416835290935291909120549091508015612a245760008781526005602090815260408083206001600160a01b03861680855292528083208390555183908381818185875af1925050503d80600081146129a4576040519150601f19603f3d011682016040523d82523d6000602084013e6129a9565b606091505b5050905080156129fc57826001600160a01b0316887f7a482fdeb6bc9a1376f597068a214a7a39472bb2eff1b8cad21ba04f49ddca1b846040516129ef91815260200190565b60405180910390a3612a22565b60008881526005602090815260408083206001600160a01b038716845290915290208290555b505b50508080612a3190612def565b9150506128ef565b506040516000808252908590600080516020612e208339815191529060200160405180910390a35b604051339085907f32ca2cffcc09e55beb72f2d2f8058a14731c3b3aa9a3cb1510f868a07810609d90600090a3505050610c086001600055565b600260005403612abe57604051633ee5aeb560e01b815260040160405180910390fd5b6002600055565b6001546001600160a01b031633146110945760405163118cdaa760e01b8152336004820152602401610749565b600180546001600160a01b038381166001600160a01b0319831681179093556040519116919082907f8be0079c531659141344cd1fd0a4f28419497f9722a3daafe3b4186f6b6457e090600090a35050565b80356001600160a01b0381168114612b5b57600080fd5b919050565b60008060408385031215612b7357600080fd5b82359150612b8360208401612b44565b90509250929050565b60008060408385031215612b9f57600080fd5b50508035926020909101359150565b600060208284031215612bc057600080fd5b5035919050565b600060208284031215612bd957600080fd5b612be282612b44565b9392505050565b604080825283519082018190526000906020906060840190828701845b82811015612c2b5781516001600160a01b031684529284019290840190600101612c06565b5050508381038285015284518082528583019183019060005b81811015612c6057835183529284019291840191600101612c44565b5090979650505050505050565b602080825282518282018190526000919060409081850190868401855b82811015612cc257815180516001600160a01b0316855286810151878601528501518585015260609093019290850190600101612c8a565b5091979650505050505050565b600080600060608486031215612ce457600080fd5b505081359360208301359350604090920135919050565b6020808252600b908201526a213ab5b0b71030b236b4b760a91b604082015260600190565b6020808252601690820152752632b630b733903a34b230b5903234ba32b6bab5b0b760511b604082015260600190565b634e487b7160e01b600052601160045260246000fd5b808201808211156110ba576110ba612d50565b60208082526017908201527f5472616e73666572206b65206f776e657220676167616c000000000000000000604082015260600190565b818103818111156110ba576110ba612d50565b634e487b7160e01b600052604160045260246000fd5b634e487b7160e01b600052603260045260246000fd5b600060018201612e0157612e01612d50565b5060010190565b80820281158282048414176110ba576110ba612d5056fe4d9113a1377d665eaa1f9168a9c9080f2e488cb820b10149de3d6d2e0f2780c7a2646970667358221220ab51487260300cb3a2e5ac4a43cc7060f0c2139392795fdf005a34be970dc5d964736f6c63430008140033",
  "linkReferences": {},
  "deployedLinkReferences": {}
}